{
  "contractName": "familyAus1155",
  "abi": [
    {
      "inputs": [],
      "stateMutability": "nonpayable",
      "type": "constructor"
    },
    {
      "anonymous": false,
      "inputs": [
        {
          "indexed": true,
          "internalType": "address",
          "name": "account",
          "type": "address"
        },
        {
          "indexed": true,
          "internalType": "address",
          "name": "operator",
          "type": "address"
        },
        {
          "indexed": false,
          "internalType": "bool",
          "name": "approved",
          "type": "bool"
        }
      ],
      "name": "ApprovalForAll",
      "type": "event"
    },
    {
      "anonymous": false,
      "inputs": [
        {
          "indexed": true,
          "internalType": "address",
          "name": "previousOwner",
          "type": "address"
        },
        {
          "indexed": true,
          "internalType": "address",
          "name": "newOwner",
          "type": "address"
        }
      ],
      "name": "OwnershipTransferred",
      "type": "event"
    },
    {
      "anonymous": false,
      "inputs": [
        {
          "indexed": true,
          "internalType": "address",
          "name": "operator",
          "type": "address"
        },
        {
          "indexed": true,
          "internalType": "address",
          "name": "from",
          "type": "address"
        },
        {
          "indexed": true,
          "internalType": "address",
          "name": "to",
          "type": "address"
        },
        {
          "indexed": false,
          "internalType": "uint256[]",
          "name": "ids",
          "type": "uint256[]"
        },
        {
          "indexed": false,
          "internalType": "uint256[]",
          "name": "values",
          "type": "uint256[]"
        }
      ],
      "name": "TransferBatch",
      "type": "event"
    },
    {
      "anonymous": false,
      "inputs": [
        {
          "indexed": true,
          "internalType": "address",
          "name": "operator",
          "type": "address"
        },
        {
          "indexed": true,
          "internalType": "address",
          "name": "from",
          "type": "address"
        },
        {
          "indexed": true,
          "internalType": "address",
          "name": "to",
          "type": "address"
        },
        {
          "indexed": false,
          "internalType": "uint256",
          "name": "id",
          "type": "uint256"
        },
        {
          "indexed": false,
          "internalType": "uint256",
          "name": "value",
          "type": "uint256"
        }
      ],
      "name": "TransferSingle",
      "type": "event"
    },
    {
      "anonymous": false,
      "inputs": [
        {
          "indexed": false,
          "internalType": "string",
          "name": "value",
          "type": "string"
        },
        {
          "indexed": true,
          "internalType": "uint256",
          "name": "id",
          "type": "uint256"
        }
      ],
      "name": "URI",
      "type": "event"
    },
    {
      "inputs": [],
      "name": "Blue_l",
      "outputs": [
        {
          "internalType": "uint256",
          "name": "",
          "type": "uint256"
        }
      ],
      "stateMutability": "view",
      "type": "function",
      "constant": true
    },
    {
      "inputs": [],
      "name": "Blue_m",
      "outputs": [
        {
          "internalType": "uint256",
          "name": "",
          "type": "uint256"
        }
      ],
      "stateMutability": "view",
      "type": "function",
      "constant": true
    },
    {
      "inputs": [],
      "name": "Blue_s",
      "outputs": [
        {
          "internalType": "uint256",
          "name": "",
          "type": "uint256"
        }
      ],
      "stateMutability": "view",
      "type": "function",
      "constant": true
    },
    {
      "inputs": [],
      "name": "Blue_xl",
      "outputs": [
        {
          "internalType": "uint256",
          "name": "",
          "type": "uint256"
        }
      ],
      "stateMutability": "view",
      "type": "function",
      "constant": true
    },
    {
      "inputs": [],
      "name": "Blue_xs",
      "outputs": [
        {
          "internalType": "uint256",
          "name": "",
          "type": "uint256"
        }
      ],
      "stateMutability": "view",
      "type": "function",
      "constant": true
    },
    {
      "inputs": [],
      "name": "Choc_l",
      "outputs": [
        {
          "internalType": "uint256",
          "name": "",
          "type": "uint256"
        }
      ],
      "stateMutability": "view",
      "type": "function",
      "constant": true
    },
    {
      "inputs": [],
      "name": "Choc_m",
      "outputs": [
        {
          "internalType": "uint256",
          "name": "",
          "type": "uint256"
        }
      ],
      "stateMutability": "view",
      "type": "function",
      "constant": true
    },
    {
      "inputs": [],
      "name": "Choc_s",
      "outputs": [
        {
          "internalType": "uint256",
          "name": "",
          "type": "uint256"
        }
      ],
      "stateMutability": "view",
      "type": "function",
      "constant": true
    },
    {
      "inputs": [],
      "name": "Choc_xl",
      "outputs": [
        {
          "internalType": "uint256",
          "name": "",
          "type": "uint256"
        }
      ],
      "stateMutability": "view",
      "type": "function",
      "constant": true
    },
    {
      "inputs": [],
      "name": "Choc_xs",
      "outputs": [
        {
          "internalType": "uint256",
          "name": "",
          "type": "uint256"
        }
      ],
      "stateMutability": "view",
      "type": "function",
      "constant": true
    },
    {
      "inputs": [],
      "name": "Grn_l",
      "outputs": [
        {
          "internalType": "uint256",
          "name": "",
          "type": "uint256"
        }
      ],
      "stateMutability": "view",
      "type": "function",
      "constant": true
    },
    {
      "inputs": [],
      "name": "Grn_m",
      "outputs": [
        {
          "internalType": "uint256",
          "name": "",
          "type": "uint256"
        }
      ],
      "stateMutability": "view",
      "type": "function",
      "constant": true
    },
    {
      "inputs": [],
      "name": "Grn_s",
      "outputs": [
        {
          "internalType": "uint256",
          "name": "",
          "type": "uint256"
        }
      ],
      "stateMutability": "view",
      "type": "function",
      "constant": true
    },
    {
      "inputs": [],
      "name": "Grn_xl",
      "outputs": [
        {
          "internalType": "uint256",
          "name": "",
          "type": "uint256"
        }
      ],
      "stateMutability": "view",
      "type": "function",
      "constant": true
    },
    {
      "inputs": [],
      "name": "Grn_xs",
      "outputs": [
        {
          "internalType": "uint256",
          "name": "",
          "type": "uint256"
        }
      ],
      "stateMutability": "view",
      "type": "function",
      "constant": true
    },
    {
      "inputs": [],
      "name": "Olve_l",
      "outputs": [
        {
          "internalType": "uint256",
          "name": "",
          "type": "uint256"
        }
      ],
      "stateMutability": "view",
      "type": "function",
      "constant": true
    },
    {
      "inputs": [],
      "name": "Olve_m",
      "outputs": [
        {
          "internalType": "uint256",
          "name": "",
          "type": "uint256"
        }
      ],
      "stateMutability": "view",
      "type": "function",
      "constant": true
    },
    {
      "inputs": [],
      "name": "Olve_s",
      "outputs": [
        {
          "internalType": "uint256",
          "name": "",
          "type": "uint256"
        }
      ],
      "stateMutability": "view",
      "type": "function",
      "constant": true
    },
    {
      "inputs": [],
      "name": "Olve_xl",
      "outputs": [
        {
          "internalType": "uint256",
          "name": "",
          "type": "uint256"
        }
      ],
      "stateMutability": "view",
      "type": "function",
      "constant": true
    },
    {
      "inputs": [],
      "name": "Olve_xs",
      "outputs": [
        {
          "internalType": "uint256",
          "name": "",
          "type": "uint256"
        }
      ],
      "stateMutability": "view",
      "type": "function",
      "constant": true
    },
    {
      "inputs": [],
      "name": "Sand_l",
      "outputs": [
        {
          "internalType": "uint256",
          "name": "",
          "type": "uint256"
        }
      ],
      "stateMutability": "view",
      "type": "function",
      "constant": true
    },
    {
      "inputs": [],
      "name": "Sand_m",
      "outputs": [
        {
          "internalType": "uint256",
          "name": "",
          "type": "uint256"
        }
      ],
      "stateMutability": "view",
      "type": "function",
      "constant": true
    },
    {
      "inputs": [],
      "name": "Sand_s",
      "outputs": [
        {
          "internalType": "uint256",
          "name": "",
          "type": "uint256"
        }
      ],
      "stateMutability": "view",
      "type": "function",
      "constant": true
    },
    {
      "inputs": [],
      "name": "Sand_xl",
      "outputs": [
        {
          "internalType": "uint256",
          "name": "",
          "type": "uint256"
        }
      ],
      "stateMutability": "view",
      "type": "function",
      "constant": true
    },
    {
      "inputs": [],
      "name": "Sand_xs",
      "outputs": [
        {
          "internalType": "uint256",
          "name": "",
          "type": "uint256"
        }
      ],
      "stateMutability": "view",
      "type": "function",
      "constant": true
    },
    {
      "inputs": [
        {
          "internalType": "address",
          "name": "account",
          "type": "address"
        },
        {
          "internalType": "uint256",
          "name": "id",
          "type": "uint256"
        }
      ],
      "name": "balanceOf",
      "outputs": [
        {
          "internalType": "uint256",
          "name": "",
          "type": "uint256"
        }
      ],
      "stateMutability": "view",
      "type": "function",
      "constant": true
    },
    {
      "inputs": [
        {
          "internalType": "address[]",
          "name": "accounts",
          "type": "address[]"
        },
        {
          "internalType": "uint256[]",
          "name": "ids",
          "type": "uint256[]"
        }
      ],
      "name": "balanceOfBatch",
      "outputs": [
        {
          "internalType": "uint256[]",
          "name": "",
          "type": "uint256[]"
        }
      ],
      "stateMutability": "view",
      "type": "function",
      "constant": true
    },
    {
      "inputs": [
        {
          "internalType": "address",
          "name": "account",
          "type": "address"
        },
        {
          "internalType": "address",
          "name": "operator",
          "type": "address"
        }
      ],
      "name": "isApprovedForAll",
      "outputs": [
        {
          "internalType": "bool",
          "name": "",
          "type": "bool"
        }
      ],
      "stateMutability": "view",
      "type": "function",
      "constant": true
    },
    {
      "inputs": [],
      "name": "owner",
      "outputs": [
        {
          "internalType": "address",
          "name": "",
          "type": "address"
        }
      ],
      "stateMutability": "view",
      "type": "function",
      "constant": true
    },
    {
      "inputs": [],
      "name": "renounceOwnership",
      "outputs": [],
      "stateMutability": "nonpayable",
      "type": "function"
    },
    {
      "inputs": [
        {
          "internalType": "address",
          "name": "from",
          "type": "address"
        },
        {
          "internalType": "address",
          "name": "to",
          "type": "address"
        },
        {
          "internalType": "uint256[]",
          "name": "ids",
          "type": "uint256[]"
        },
        {
          "internalType": "uint256[]",
          "name": "amounts",
          "type": "uint256[]"
        },
        {
          "internalType": "bytes",
          "name": "data",
          "type": "bytes"
        }
      ],
      "name": "safeBatchTransferFrom",
      "outputs": [],
      "stateMutability": "nonpayable",
      "type": "function"
    },
    {
      "inputs": [
        {
          "internalType": "address",
          "name": "from",
          "type": "address"
        },
        {
          "internalType": "address",
          "name": "to",
          "type": "address"
        },
        {
          "internalType": "uint256",
          "name": "id",
          "type": "uint256"
        },
        {
          "internalType": "uint256",
          "name": "amount",
          "type": "uint256"
        },
        {
          "internalType": "bytes",
          "name": "data",
          "type": "bytes"
        }
      ],
      "name": "safeTransferFrom",
      "outputs": [],
      "stateMutability": "nonpayable",
      "type": "function"
    },
    {
      "inputs": [
        {
          "internalType": "address",
          "name": "operator",
          "type": "address"
        },
        {
          "internalType": "bool",
          "name": "approved",
          "type": "bool"
        }
      ],
      "name": "setApprovalForAll",
      "outputs": [],
      "stateMutability": "nonpayable",
      "type": "function"
    },
    {
      "inputs": [
        {
          "internalType": "bytes4",
          "name": "interfaceId",
          "type": "bytes4"
        }
      ],
      "name": "supportsInterface",
      "outputs": [
        {
          "internalType": "bool",
          "name": "",
          "type": "bool"
        }
      ],
      "stateMutability": "view",
      "type": "function",
      "constant": true
    },
    {
      "inputs": [
        {
          "internalType": "address",
          "name": "newOwner",
          "type": "address"
        }
      ],
      "name": "transferOwnership",
      "outputs": [],
      "stateMutability": "nonpayable",
      "type": "function"
    },
    {
      "inputs": [
        {
          "internalType": "uint256",
          "name": "",
          "type": "uint256"
        }
      ],
      "name": "uri",
      "outputs": [
        {
          "internalType": "string",
          "name": "",
          "type": "string"
        }
      ],
      "stateMutability": "view",
      "type": "function",
      "constant": true
    },
    {
      "inputs": [
        {
          "internalType": "address",
          "name": "_to",
          "type": "address"
        },
        {
          "internalType": "uint256",
          "name": "_id",
          "type": "uint256"
        },
        {
          "internalType": "uint256",
          "name": "_amount",
          "type": "uint256"
        },
        {
          "internalType": "bytes",
          "name": "",
          "type": "bytes"
        }
      ],
      "name": "mintFromInv",
      "outputs": [],
      "stateMutability": "nonpayable",
      "type": "function"
    }
  ],
  "bytecode": "0x60806040523480156200001157600080fd5b506040518060600160405280603f815260200162001f52603f91396200003781620003dd565b506200004333620003f6565b600460208190527f17ef568e3e12ab5b9c7254a8d58478811de00f9e6eb34345acd53bf8fd09d3ec81905560097fabd6e7cb50984ff9c2f3e18a2660c3353dadf4e3291deeb275dae2cd1e44fe055560027f91da3fd0782e51c6b3986e9e672fd566868e71f3dbc2d6c2cd6fbb3e361af2a78190557f2e174c10e159ea99b867ce3205125c24a42d128804e4070ed6fcc8cc98166aa08290557f1a1e6821cde7d0159c0d293177871e09677b4e42307c7db3ba94f8648a5a050f82905560037f04cde762ef08b6b6c5ded8e8c4c0b3f4e5c9ad7342c88fcc93681b4588b73f0581905560087fc59312466997bb42aaaf719ece141047820e6b34531e1670dc1852a453648f0f8190557fbeb3bad75134cb432e5707980e3245c52c5998a1125ee30f2f0dbf3925b1e5518290557f2645749a946633740611cfc8178319f0958659d6922e4bf7e3a08b44789f53a48290557f4ad5a04d53b5856f318545bb721f67d3f6d0a5a999f25eec7e20eaeb4c47b9338290557f5c6b02db8b672415ffad906d7ccee10bd53dbad7d0b29e2bc0e50c93d5f3109382905560057f0c1469ad586d86b6976c45826d7ae56d76ee516e37a2bccffbe904b74dbae7ea8190557f140aabff1a85df08546c9a350c79ae18341bde4a2cef5d2fd460885c0128ce268490557fa5022b2bfd144bf9103d80168549b5df7c72ab60bd51bf71a02a08d844853b4a939093557feb3e677499e881fe1bdbc344a49c412138038a9f40883b6dc68f713aab4835238290557f66b61daf77b854ca6ba000a8d4b340eafcdb71b6583753b4af89fceb54988fff8490557f4a597304b2df0a7a7b428b3c24c35ba6373aabebf9972387f5610f74a01b21bd557fac375bcb880242328180c23d4a918023a12a7caf7cf12b8c4074e4a3f39900a0919091557f7f6fa3f34639ea1891363ca773619dbd5f652d7ab50411111dde2f57e3ae13ad8290557f9bbf2ad10217b6212df1939350a047a69b6887b770020d3fa8c328c0653ee987557ff7deed9399d719bf61dcb1322c056a03a885c275ab093673b0cc182b84bea06181905560067f1bb30a1647f6f6723cb3a88838ce0319afabe51263fc466f2f669a7a24ad88c6557f87e655ef16e4075af30c6a90c2b439f7dcd2d83a606dafadaee10cffaf9181328190557fff624574ceefb6578b3887a7448cf2ca4d120002f646987b0a9b9ad3f6dc2c1081905560186000527f1ac66383b86984a837d32661c9fdda480194de6e2dbd3891e29fadcb763a62da556200052b565b8051620003f290600290602084019062000448565b5050565b600380546001600160a01b038381166001600160a01b0319831681179093556040519116919082907f8be0079c531659141344cd1fd0a4f28419497f9722a3daafe3b4186f6b6457e090600090a35050565b8280546200045690620004ee565b90600052602060002090601f0160209004810192826200047a5760008555620004c5565b82601f106200049557805160ff1916838001178555620004c5565b82800160010185558215620004c5579182015b82811115620004c5578251825591602001919060010190620004a8565b50620004d3929150620004d7565b5090565b5b80821115620004d35760008155600101620004d8565b600181811c908216806200050357607f821691505b602082108114156200052557634e487b7160e01b600052602260045260246000fd5b50919050565b611a17806200053b6000396000f3fe608060405234801561001057600080fd5b50600436106102265760003560e01c8063715018a611610130578063b9af6768116100b8578063f242432a1161007c578063f242432a146103fe578063f2fde38b14610411578063f33de1b214610424578063f598dfc81461042c578063fa9dad731461043457600080fd5b8063b9af676814610397578063ce4aa00c1461039f578063dd3aac44146103a7578063e985e9c5146103ba578063f03218a0146103f657600080fd5b8063a22cb465116100ff578063a22cb46514610364578063a4c37cf714610377578063b3bc88701461037f578063b5da507d14610387578063b745020c1461038f57600080fd5b8063715018a61461033157806374d21f08146103395780638123da36146103415780638da5cb5b1461034957600080fd5b80632a319c6a116101b357806332cada551161018257806332cada55146102f157806339e54854146102f95780633fd41d89146103015780634e1273f414610309578063568184b51461032957600080fd5b80632a319c6a146102c45780632a74116c146102cc5780632b777043146102d45780632eb2c2d6146102dc57600080fd5b80630e89341c116101fa5780630e89341c1461028457806319fc3dce146102a45780631c092019146102ac578063231fa4d1146102b4578063251886a0146102bc57600080fd5b8062fdd58e1461022b57806301ffc9a714610251578063086d2b8c146102745780630b64ae741461027c575b600080fd5b61023e610239366004611189565b61043c565b6040519081526020015b60405180910390f35b61026461025f3660046111c9565b6104d3565b6040519015158152602001610248565b61023e601281565b61023e600681565b6102976102923660046111ed565b610525565b6040516102489190611253565b61023e600381565b61023e601581565b61023e601481565b61023e600181565b61023e600c81565b61023e600981565b61023e600781565b6102ef6102ea3660046113b2565b6105b9565b005b61023e601381565b61023e601081565b61023e600e81565b61031c61031736600461145c565b610650565b6040516102489190611562565b61023e600481565b6102ef61077a565b61023e601781565b61023e600a81565b6003546040516001600160a01b039091168152602001610248565b6102ef610372366004611575565b6107e0565b61023e600881565b61023e601881565b61023e601681565b61023e600b81565b61023e600281565b61023e600081565b6102ef6103b53660046115b1565b6108b7565b6102646103c8366004611612565b6001600160a01b03918216600090815260016020908152604080832093909416825291909152205460ff1690565b61023e600d81565b6102ef61040c366004611645565b610945565b6102ef61041f3660046116aa565b6109cc565b61023e600581565b61023e601181565b61023e600f81565b60006001600160a01b0383166104ad5760405162461bcd60e51b815260206004820152602b60248201527f455243313135353a2062616c616e636520717565727920666f7220746865207a60448201526a65726f206164647265737360a81b60648201526084015b60405180910390fd5b506000908152602081815260408083206001600160a01b03949094168352929052205490565b60006001600160e01b03198216636cdb3d1360e11b148061050457506001600160e01b031982166303a24d0760e21b145b8061051f57506301ffc9a760e01b6001600160e01b03198316145b92915050565b606060028054610534906116c5565b80601f0160208091040260200160405190810160405280929190818152602001828054610560906116c5565b80156105ad5780601f10610582576101008083540402835291602001916105ad565b820191906000526020600020905b81548152906001019060200180831161059057829003601f168201915b50505050509050919050565b6001600160a01b0385163314806105d557506105d585336103c8565b61063c5760405162461bcd60e51b815260206004820152603260248201527f455243313135353a207472616e736665722063616c6c6572206973206e6f74206044820152711bdddb995c881b9bdc88185c1c1c9bdd995960721b60648201526084016104a4565b6106498585858585610a97565b5050505050565b606081518351146106b55760405162461bcd60e51b815260206004820152602960248201527f455243313135353a206163636f756e747320616e6420696473206c656e677468604482015268040dad2e6dac2e8c6d60bb1b60648201526084016104a4565b6000835167ffffffffffffffff8111156106d1576106d1611266565b6040519080825280602002602001820160405280156106fa578160200160208202803683370190505b50905060005b84518110156107725761074585828151811061071e5761071e611700565b602002602001015185838151811061073857610738611700565b602002602001015161043c565b82828151811061075757610757611700565b602090810291909101015261076b8161172c565b9050610700565b509392505050565b6003546001600160a01b031633146107d45760405162461bcd60e51b815260206004820181905260248201527f4f776e61626c653a2063616c6c6572206973206e6f7420746865206f776e657260448201526064016104a4565b6107de6000610c74565b565b336001600160a01b038316141561084b5760405162461bcd60e51b815260206004820152602960248201527f455243313135353a2073657474696e6720617070726f76616c20737461747573604482015268103337b91039b2b63360b91b60648201526084016104a4565b3360008181526001602090815260408083206001600160a01b03871680855290835292819020805460ff191686151590811790915590519081529192917f17307eab39ab6107e8899845ad3d59bd9653f200f220920489ca2b5937696c31910160405180910390a35050565b6000838152600460205260409020546109015760405162461bcd60e51b815260206004820152600c60248201526b4f7574206f662053746f636b60a01b60448201526064016104a4565b61091c84848460405180602001604052806000815250610cc6565b6000838152600460205260408120805484929061093a908490611747565b909155505050505050565b6001600160a01b038516331480610961575061096185336103c8565b6109bf5760405162461bcd60e51b815260206004820152602960248201527f455243313135353a2063616c6c6572206973206e6f74206f776e6572206e6f7260448201526808185c1c1c9bdd995960ba1b60648201526084016104a4565b6106498585858585610dd0565b6003546001600160a01b03163314610a265760405162461bcd60e51b815260206004820181905260248201527f4f776e61626c653a2063616c6c6572206973206e6f7420746865206f776e657260448201526064016104a4565b6001600160a01b038116610a8b5760405162461bcd60e51b815260206004820152602660248201527f4f776e61626c653a206e6577206f776e657220697320746865207a65726f206160448201526564647265737360d01b60648201526084016104a4565b610a9481610c74565b50565b8151835114610af95760405162461bcd60e51b815260206004820152602860248201527f455243313135353a2069647320616e6420616d6f756e7473206c656e677468206044820152670dad2e6dac2e8c6d60c31b60648201526084016104a4565b6001600160a01b038416610b1f5760405162461bcd60e51b81526004016104a49061175e565b3360005b8451811015610c06576000858281518110610b4057610b40611700565b602002602001015190506000858381518110610b5e57610b5e611700565b602090810291909101810151600084815280835260408082206001600160a01b038e168352909352919091205490915081811015610bae5760405162461bcd60e51b81526004016104a4906117a3565b6000838152602081815260408083206001600160a01b038e8116855292528083208585039055908b16825281208054849290610beb9084906117ed565b9250508190555050505080610bff9061172c565b9050610b23565b50846001600160a01b0316866001600160a01b0316826001600160a01b03167f4a39dc06d4c0dbc64b70af90fd698a233a518aa5d07e595d983b8c0526c8f7fb8787604051610c56929190611805565b60405180910390a4610c6c818787878787610eed565b505050505050565b600380546001600160a01b038381166001600160a01b0319831681179093556040519116919082907f8be0079c531659141344cd1fd0a4f28419497f9722a3daafe3b4186f6b6457e090600090a35050565b6001600160a01b038416610d265760405162461bcd60e51b815260206004820152602160248201527f455243313135353a206d696e7420746f20746865207a65726f206164647265736044820152607360f81b60648201526084016104a4565b33610d4081600087610d3788611058565b61064988611058565b6000848152602081815260408083206001600160a01b038916845290915281208054859290610d709084906117ed565b909155505060408051858152602081018590526001600160a01b0380881692600092918516917fc3d58168c5ae7397731d063d5bbf3d657854427343f4c083240f7aacaa2d0f62910160405180910390a4610649816000878787876110a3565b6001600160a01b038416610df65760405162461bcd60e51b81526004016104a49061175e565b33610e06818787610d3788611058565b6000848152602081815260408083206001600160a01b038a16845290915290205483811015610e475760405162461bcd60e51b81526004016104a4906117a3565b6000858152602081815260408083206001600160a01b038b8116855292528083208785039055908816825281208054869290610e849084906117ed565b909155505060408051868152602081018690526001600160a01b03808916928a821692918616917fc3d58168c5ae7397731d063d5bbf3d657854427343f4c083240f7aacaa2d0f62910160405180910390a4610ee48288888888886110a3565b50505050505050565b6001600160a01b0384163b15610c6c5760405163bc197c8160e01b81526001600160a01b0385169063bc197c8190610f319089908990889088908890600401611833565b602060405180830381600087803b158015610f4b57600080fd5b505af1925050508015610f7b575060408051601f3d908101601f19168201909252610f7891810190611891565b60015b61102857610f876118ae565b806308c379a01415610fc15750610f9c6118ca565b80610fa75750610fc3565b8060405162461bcd60e51b81526004016104a49190611253565b505b60405162461bcd60e51b815260206004820152603460248201527f455243313135353a207472616e7366657220746f206e6f6e20455243313135356044820152732932b1b2b4bb32b91034b6b83632b6b2b73a32b960611b60648201526084016104a4565b6001600160e01b0319811663bc197c8160e01b14610ee45760405162461bcd60e51b81526004016104a490611954565b6040805160018082528183019092526060916000919060208083019080368337019050509050828160008151811061109257611092611700565b602090810291909101015292915050565b6001600160a01b0384163b15610c6c5760405163f23a6e6160e01b81526001600160a01b0385169063f23a6e61906110e7908990899088908890889060040161199c565b602060405180830381600087803b15801561110157600080fd5b505af1925050508015611131575060408051601f3d908101601f1916820190925261112e91810190611891565b60015b61113d57610f876118ae565b6001600160e01b0319811663f23a6e6160e01b14610ee45760405162461bcd60e51b81526004016104a490611954565b80356001600160a01b038116811461118457600080fd5b919050565b6000806040838503121561119c57600080fd5b6111a58361116d565b946020939093013593505050565b6001600160e01b031981168114610a9457600080fd5b6000602082840312156111db57600080fd5b81356111e6816111b3565b9392505050565b6000602082840312156111ff57600080fd5b5035919050565b6000815180845260005b8181101561122c57602081850181015186830182015201611210565b8181111561123e576000602083870101525b50601f01601f19169290920160200192915050565b6020815260006111e66020830184611206565b634e487b7160e01b600052604160045260246000fd5b601f8201601f1916810167ffffffffffffffff811182821017156112a2576112a2611266565b6040525050565b600067ffffffffffffffff8211156112c3576112c3611266565b5060051b60200190565b600082601f8301126112de57600080fd5b813560206112eb826112a9565b6040516112f8828261127c565b83815260059390931b850182019282810191508684111561131857600080fd5b8286015b84811015611333578035835291830191830161131c565b509695505050505050565b600082601f83011261134f57600080fd5b813567ffffffffffffffff81111561136957611369611266565b604051611380601f8301601f19166020018261127c565b81815284602083860101111561139557600080fd5b816020850160208301376000918101602001919091529392505050565b600080600080600060a086880312156113ca57600080fd5b6113d38661116d565b94506113e16020870161116d565b9350604086013567ffffffffffffffff808211156113fe57600080fd5b61140a89838a016112cd565b9450606088013591508082111561142057600080fd5b61142c89838a016112cd565b9350608088013591508082111561144257600080fd5b5061144f8882890161133e565b9150509295509295909350565b6000806040838503121561146f57600080fd5b823567ffffffffffffffff8082111561148757600080fd5b818501915085601f83011261149b57600080fd5b813560206114a8826112a9565b6040516114b5828261127c565b83815260059390931b85018201928281019150898411156114d557600080fd5b948201945b838610156114fa576114eb8661116d565b825294820194908201906114da565b9650508601359250508082111561151057600080fd5b5061151d858286016112cd565b9150509250929050565b600081518084526020808501945080840160005b838110156115575781518752958201959082019060010161153b565b509495945050505050565b6020815260006111e66020830184611527565b6000806040838503121561158857600080fd5b6115918361116d565b9150602083013580151581146115a657600080fd5b809150509250929050565b600080600080608085870312156115c757600080fd5b6115d08561116d565b93506020850135925060408501359150606085013567ffffffffffffffff8111156115fa57600080fd5b6116068782880161133e565b91505092959194509250565b6000806040838503121561162557600080fd5b61162e8361116d565b915061163c6020840161116d565b90509250929050565b600080600080600060a0868803121561165d57600080fd5b6116668661116d565b94506116746020870161116d565b93506040860135925060608601359150608086013567ffffffffffffffff81111561169e57600080fd5b61144f8882890161133e565b6000602082840312156116bc57600080fd5b6111e68261116d565b600181811c908216806116d957607f821691505b602082108114156116fa57634e487b7160e01b600052602260045260246000fd5b50919050565b634e487b7160e01b600052603260045260246000fd5b634e487b7160e01b600052601160045260246000fd5b600060001982141561174057611740611716565b5060010190565b60008282101561175957611759611716565b500390565b60208082526025908201527f455243313135353a207472616e7366657220746f20746865207a65726f206164604082015264647265737360d81b606082015260800190565b6020808252602a908201527f455243313135353a20696e73756666696369656e742062616c616e636520666f60408201526939103a3930b739b332b960b11b606082015260800190565b6000821982111561180057611800611716565b500190565b6040815260006118186040830185611527565b828103602084015261182a8185611527565b95945050505050565b6001600160a01b0386811682528516602082015260a06040820181905260009061185f90830186611527565b82810360608401526118718186611527565b905082810360808401526118858185611206565b98975050505050505050565b6000602082840312156118a357600080fd5b81516111e6816111b3565b600060033d11156118c75760046000803e5060005160e01c5b90565b600060443d10156118d85790565b6040516003193d81016004833e81513d67ffffffffffffffff816024840111818411171561190857505050505090565b82850191508151818111156119205750505050505090565b843d870101602082850101111561193a5750505050505090565b6119496020828601018761127c565b509095945050505050565b60208082526028908201527f455243313135353a204552433131353552656365697665722072656a656374656040820152676420746f6b656e7360c01b606082015260800190565b6001600160a01b03868116825285166020820152604081018490526060810183905260a0608082018190526000906119d690830184611206565b97965050505050505056fea2646970667358221220f7df3cea8d7c3b13886b54b5fa1198a14b41cc703ada2e2d6b2ea5f86b88de6264736f6c63430008090033697066733a2f2f516d516d713650694c527a70373446316e6a7a52674d72587043335448326a5548344533716932454d4b71635a372f7b69647d2e6a736f6e",
  "immutableReferences": {},
  "source": "// SPDX-License-Identifier: MIT\r\npragma solidity ^0.8.0;\r\n\r\nimport \"@openzeppelin/contracts/token/ERC1155/ERC1155.sol\";\r\nimport \"@openzeppelin/contracts/access/Ownable.sol\";\r\n\r\ncontract familyAus1155 is ERC1155, Ownable {\r\n\r\n    uint256 public constant Blue_xs = 0;\r\n    uint256 public constant Blue_s = 1;\r\n    uint256 public constant Blue_m = 2;\r\n    uint256 public constant Blue_l = 3;\r\n    uint256 public constant Blue_xl = 4;\r\n    uint256 public constant Choc_xs = 5;\r\n    uint256 public constant Choc_s = 6;\r\n    uint256 public constant Choc_m = 7;\r\n    uint256 public constant Choc_l = 8;\r\n    uint256 public constant Choc_xl = 9;\r\n    uint256 public constant Grn_xs = 10;\r\n    uint256 public constant Grn_s = 11;\r\n    uint256 public constant Grn_m = 12;\r\n    uint256 public constant Grn_l = 13;\r\n    uint256 public constant Grn_xl = 14;\r\n    uint256 public constant Olve_xs = 15;\r\n    uint256 public constant Olve_s = 16;\r\n    uint256 public constant Olve_m = 17;\r\n    uint256 public constant Olve_l = 18;\r\n    uint256 public constant Olve_xl = 19;\r\n    uint256 public constant Sand_xs = 20;\r\n    uint256 public constant Sand_s = 21;\r\n    uint256 public constant Sand_m = 22;\r\n    uint256 public constant Sand_l = 23;\r\n    uint256 public constant Sand_xl = 24;\r\n\r\n    mapping (uint => uint) stock;\r\n\r\n\r\n    constructor() ERC1155(\"ipfs://QmQmq6PiLRzp74F1njzRgMrXpC3TH2jUH4E3qi2EMKqcZ7/{id}.json\") {\r\n            \r\n        stock[0] = 4;\r\n        stock[1] = 9;\r\n        stock[2] = 2;\r\n        stock[3] = 4;\r\n        stock[4] = 4;\r\n        stock[5] = 3;\r\n        stock[6] = 8;\r\n        stock[7] = 3;\r\n        stock[8] = 3;\r\n        stock[9] = 3;\r\n        stock[10] = 3;\r\n        stock[11] = 5;\r\n        stock[12] = 2;\r\n        stock[13] = 2;\r\n        stock[14] = 3;\r\n        stock[15] = 4;\r\n        stock[16] = 8;\r\n        stock[17] = 5;\r\n        stock[18] = 4;\r\n        stock[19] = 3;\r\n        stock[20] = 4;\r\n        stock[21] = 6;\r\n        stock[22] = 4;\r\n        stock[23] = 4;\r\n        stock[24] = 4;\r\n    }\r\n\r\n    function mintFromInv(\r\n        address _to,\r\n        uint256 _id,\r\n        uint256 _amount,\r\n        bytes memory \r\n    ) public {\r\n        require (stock[_id] > 0, \"Out of Stock\");\r\n        _mint(_to, _id, _amount, \"\");\r\n        stock[_id] -= _amount;\r\n    }\r\n\r\n    // function mintBatch(\r\n    //     address _to,\r\n    //     uint256[] memory _ids,\r\n    //     uint256[] memory _amounts,\r\n    //     bytes memory _data\r\n    // ) public {\r\n    //     require(_ids.length == _amounts.length, \"ERC1155: ids and amounts length mismatch\");\r\n    //     for (uint i=0; i<_ids.length; i++) {\r\n    //         uint id = _ids[i];\r\n    //         uint amount = _amounts[i];\r\n    //         require(stock[id] > 0, \"Out of Stock\");\r\n        \r\n    //         _mint(_to, id, amount, _data);\r\n        \r\n    //         stock[id] -= amount;\r\n    //     }\r\n    // }\r\n    \r\n\r\n}",
  "sourcePath": "C:\\Users\\anton\\Desktop\\fam_aus\\src\\contracts\\familyAus1155.sol",
  "compiler": {
    "name": "solc",
    "version": "0.8.9+commit.e5eed63a.Emscripten.clang"
  },
  "schemaVersion": "3.4.3",
  "updatedAt": "2021-10-31T05:31:42.755Z",
  "networkType": "ethereum",
  "devdoc": {
    "kind": "dev",
    "methods": {
      "balanceOf(address,uint256)": {
        "details": "See {IERC1155-balanceOf}. Requirements: - `account` cannot be the zero address."
      },
      "balanceOfBatch(address[],uint256[])": {
        "details": "See {IERC1155-balanceOfBatch}. Requirements: - `accounts` and `ids` must have the same length."
      },
      "isApprovedForAll(address,address)": {
        "details": "See {IERC1155-isApprovedForAll}."
      },
      "owner()": {
        "details": "Returns the address of the current owner."
      },
      "renounceOwnership()": {
        "details": "Leaves the contract without owner. It will not be possible to call `onlyOwner` functions anymore. Can only be called by the current owner. NOTE: Renouncing ownership will leave the contract without an owner, thereby removing any functionality that is only available to the owner."
      },
      "safeBatchTransferFrom(address,address,uint256[],uint256[],bytes)": {
        "details": "See {IERC1155-safeBatchTransferFrom}."
      },
      "safeTransferFrom(address,address,uint256,uint256,bytes)": {
        "details": "See {IERC1155-safeTransferFrom}."
      },
      "setApprovalForAll(address,bool)": {
        "details": "See {IERC1155-setApprovalForAll}."
      },
      "supportsInterface(bytes4)": {
        "details": "See {IERC165-supportsInterface}."
      },
      "transferOwnership(address)": {
        "details": "Transfers ownership of the contract to a new account (`newOwner`). Can only be called by the current owner."
      },
      "uri(uint256)": {
        "details": "See {IERC1155MetadataURI-uri}. This implementation returns the same URI for *all* token types. It relies on the token type ID substitution mechanism https://eips.ethereum.org/EIPS/eip-1155#metadata[defined in the EIP]. Clients calling this function must replace the `\\{id\\}` substring with the actual token type ID."
      }
    },
    "version": 1
  },
  "userdoc": {
    "kind": "user",
    "methods": {},
    "version": 1
  }
}